{
  "_format": "hh-sol-artifact-1",
  "contractName": "DeTweet",
  "sourceName": "contracts/DeTweet.sol",
  "abi": [
    {
      "inputs": [
        {
          "internalType": "uint256",
          "name": "_tweetId",
          "type": "uint256"
        }
      ],
      "name": "deleteTweet",
      "outputs": [],
      "stateMutability": "nonpayable",
      "type": "function"
    },
    {
      "inputs": [],
      "name": "getAllTweets",
      "outputs": [
        {
          "components": [
            {
              "internalType": "uint256",
              "name": "id",
              "type": "uint256"
            },
            {
              "internalType": "address",
              "name": "author",
              "type": "address"
            },
            {
              "internalType": "string",
              "name": "content",
              "type": "string"
            },
            {
              "internalType": "uint256",
              "name": "timestamp",
              "type": "uint256"
            },
            {
              "internalType": "uint256",
              "name": "likes",
              "type": "uint256"
            }
          ],
          "internalType": "struct DeTweet.Tweet[]",
          "name": "",
          "type": "tuple[]"
        }
      ],
      "stateMutability": "view",
      "type": "function"
    },
    {
      "inputs": [
        {
          "internalType": "address",
          "name": "_userAddress",
          "type": "address"
        }
      ],
      "name": "getCreatedTweets",
      "outputs": [
        {
          "components": [
            {
              "internalType": "uint256",
              "name": "id",
              "type": "uint256"
            },
            {
              "internalType": "address",
              "name": "author",
              "type": "address"
            },
            {
              "internalType": "string",
              "name": "content",
              "type": "string"
            },
            {
              "internalType": "uint256",
              "name": "timestamp",
              "type": "uint256"
            },
            {
              "internalType": "uint256",
              "name": "likes",
              "type": "uint256"
            }
          ],
          "internalType": "struct DeTweet.Tweet[]",
          "name": "",
          "type": "tuple[]"
        }
      ],
      "stateMutability": "view",
      "type": "function"
    },
    {
      "inputs": [
        {
          "internalType": "address",
          "name": "_userAddress",
          "type": "address"
        }
      ],
      "name": "getUser",
      "outputs": [
        {
          "components": [
            {
              "internalType": "address",
              "name": "userAddress",
              "type": "address"
            },
            {
              "internalType": "string",
              "name": "name",
              "type": "string"
            },
            {
              "internalType": "string",
              "name": "username",
              "type": "string"
            },
            {
              "internalType": "string",
              "name": "imgURI",
              "type": "string"
            }
          ],
          "internalType": "struct DeTweet.User",
          "name": "",
          "type": "tuple"
        }
      ],
      "stateMutability": "view",
      "type": "function"
    },
    {
      "inputs": [
        {
          "internalType": "uint256",
          "name": "",
          "type": "uint256"
        }
      ],
      "name": "idToTweet",
      "outputs": [
        {
          "internalType": "uint256",
          "name": "id",
          "type": "uint256"
        },
        {
          "internalType": "address",
          "name": "author",
          "type": "address"
        },
        {
          "internalType": "string",
          "name": "content",
          "type": "string"
        },
        {
          "internalType": "uint256",
          "name": "timestamp",
          "type": "uint256"
        },
        {
          "internalType": "uint256",
          "name": "likes",
          "type": "uint256"
        }
      ],
      "stateMutability": "view",
      "type": "function"
    },
    {
      "inputs": [
        {
          "internalType": "string",
          "name": "_content",
          "type": "string"
        }
      ],
      "name": "postDweet",
      "outputs": [],
      "stateMutability": "nonpayable",
      "type": "function"
    },
    {
      "inputs": [
        {
          "internalType": "string",
          "name": "_username",
          "type": "string"
        },
        {
          "internalType": "string",
          "name": "_name",
          "type": "string"
        },
        {
          "internalType": "string",
          "name": "_imgURI",
          "type": "string"
        }
      ],
      "name": "signup",
      "outputs": [],
      "stateMutability": "nonpayable",
      "type": "function"
    },
    {
      "inputs": [
        {
          "internalType": "uint256",
          "name": "",
          "type": "uint256"
        }
      ],
      "name": "tweetIds",
      "outputs": [
        {
          "internalType": "uint256",
          "name": "",
          "type": "uint256"
        }
      ],
      "stateMutability": "view",
      "type": "function"
    },
    {
      "inputs": [
        {
          "internalType": "uint256",
          "name": "_tweetId",
          "type": "uint256"
        },
        {
          "internalType": "string",
          "name": "_content",
          "type": "string"
        }
      ],
      "name": "updateTweet",
      "outputs": [],
      "stateMutability": "nonpayable",
      "type": "function"
    },
    {
      "inputs": [
        {
          "internalType": "address",
          "name": "",
          "type": "address"
        }
      ],
      "name": "usernames",
      "outputs": [
        {
          "internalType": "string",
          "name": "",
          "type": "string"
        }
      ],
      "stateMutability": "view",
      "type": "function"
    },
    {
      "inputs": [
        {
          "internalType": "string",
          "name": "",
          "type": "string"
        }
      ],
      "name": "users",
      "outputs": [
        {
          "internalType": "address",
          "name": "userAddress",
          "type": "address"
        },
        {
          "internalType": "string",
          "name": "name",
          "type": "string"
        },
        {
          "internalType": "string",
          "name": "username",
          "type": "string"
        },
        {
          "internalType": "string",
          "name": "imgURI",
          "type": "string"
        }
      ],
      "stateMutability": "view",
      "type": "function"
    }
  ],
  "bytecode": "0x608060405234801561001057600080fd5b506125d5806100206000396000f3fe608060405234801561001057600080fd5b50600436106100a95760003560e01c8063689e1c0311610071578063689e1c03146101685780636f77926b1461019b5780637c0aa77a146101cb578063ac0861c3146101e7578063ac1b97f614610203578063ee91877c14610233576100a9565b806317edf66d146100ae5780632fc51e9f146100de57806353256135146101125780635775912a14610130578063675164a41461014c575b600080fd5b6100c860048036038101906100c39190611a19565b610263565b6040516100d5919061206a565b60405180910390f35b6100f860048036038101906100f39190611a19565b610287565b604051610109959493929190612085565b60405180910390f35b61011a610365565b6040516101279190611f04565b60405180910390f35b61014a60048036038101906101459190611a19565b6105dd565b005b61016660048036038101906101619190611941565b6107a6565b005b610182600480360381019061017d9190611941565b6109ca565b6040516101929493929190611eaa565b60405180910390f35b6101b560048036038101906101b09190611918565b610bc8565b6040516101c29190612048565b60405180910390f35b6101e560048036038101906101e09190611a42565b610e49565b005b61020160048036038101906101fc9190611982565b610fc8565b005b61021d60048036038101906102189190611918565b611253565b60405161022a9190611f04565b60405180910390f35b61024d60048036038101906102489190611918565b611680565b60405161025a9190611f26565b60405180910390f35b6003818154811061027357600080fd5b906000526020600020016000915090505481565b60026020528060005260406000206000915090508060000154908060010160009054906101000a900473ffffffffffffffffffffffffffffffffffffffff16908060020180546102d69061226d565b80601f01602080910402602001604051908101604052809291908181526020018280546103029061226d565b801561034f5780601f106103245761010080835404028352916020019161034f565b820191906000526020600020905b81548152906001019060200180831161033257829003601f168201915b5050505050908060030154908060040154905085565b6060600060038054905067ffffffffffffffff8111156103ae577f4e487b7100000000000000000000000000000000000000000000000000000000600052604160045260246000fd5b6040519080825280602002602001820160405280156103e757816020015b6103d4611720565b8152602001906001900390816103cc5790505b5090506000805b6003805490508110156105d457600060038281548110610437577f4e487b7100000000000000000000000000000000000000000000000000000000600052603260045260246000fd5b906000526020600020015490506000600260008381526020019081526020016000209050806040518060a0016040529081600082015481526020016001820160009054906101000a900473ffffffffffffffffffffffffffffffffffffffff1673ffffffffffffffffffffffffffffffffffffffff1673ffffffffffffffffffffffffffffffffffffffff1681526020016002820180546104d79061226d565b80601f01602080910402602001604051908101604052809291908181526020018280546105039061226d565b80156105505780601f1061052557610100808354040283529160200191610550565b820191906000526020600020905b81548152906001019060200180831161053357829003601f168201915b50505050508152602001600382015481526020016004820154815250508585815181106105a6577f4e487b7100000000000000000000000000000000000000000000000000000000600052603260045260246000fd5b602002602001018190525083806105bc906122d0565b945050505080806105cc906122d0565b9150506103ee565b50819250505090565b60005b60038054905081101561073d578160038281548110610628577f4e487b7100000000000000000000000000000000000000000000000000000000600052603260045260246000fd5b9060005260206000200154141561072a576003600160038054905061064d91906121bb565b81548110610684577f4e487b7100000000000000000000000000000000000000000000000000000000600052603260045260246000fd5b9060005260206000200154600382815481106106c9577f4e487b7100000000000000000000000000000000000000000000000000000000600052603260045260246000fd5b9060005260206000200181905550600380548061070f577f4e487b7100000000000000000000000000000000000000000000000000000000600052603160045260246000fd5b6001900381819060005260206000200160009055905561073d565b8080610735906122d0565b9150506105e0565b50600260008281526020019081526020016000206000808201600090556001820160006101000a81549073ffffffffffffffffffffffffffffffffffffffff02191690556002820160006107919190611765565b60038201600090556004820160009055505050565b60008060003373ffffffffffffffffffffffffffffffffffffffff1673ffffffffffffffffffffffffffffffffffffffff16815260200190815260200160002080546107f19061226d565b905011610833576040517f08c379a000000000000000000000000000000000000000000000000000000000815260040161082a90611f48565b60405180910390fd5b6000815111610877576040517f08c379a000000000000000000000000000000000000000000000000000000000815260040161086e90611fc8565b60405180910390fd5b610118815111156108bd576040517f08c379a00000000000000000000000000000000000000000000000000000000081526004016108b490612028565b60405180910390fd5b600060038054905090506040518060a001604052808281526020013373ffffffffffffffffffffffffffffffffffffffff1681526020018381526020014281526020016000815250600260008381526020019081526020016000206000820151816000015560208201518160010160006101000a81548173ffffffffffffffffffffffffffffffffffffffff021916908373ffffffffffffffffffffffffffffffffffffffff16021790555060408201518160020190805190602001906109859291906117a5565b50606082015181600301556080820151816004015590505060038190806001815401808255809150506001900390600052602060002001600090919091909150555050565b6001818051602081018201805184825260208301602085012081835280955050505050506000915090508060000160009054906101000a900473ffffffffffffffffffffffffffffffffffffffff1690806001018054610a299061226d565b80601f0160208091040260200160405190810160405280929190818152602001828054610a559061226d565b8015610aa25780601f10610a7757610100808354040283529160200191610aa2565b820191906000526020600020905b815481529060010190602001808311610a8557829003601f168201915b505050505090806002018054610ab79061226d565b80601f0160208091040260200160405190810160405280929190818152602001828054610ae39061226d565b8015610b305780601f10610b0557610100808354040283529160200191610b30565b820191906000526020600020905b815481529060010190602001808311610b1357829003601f168201915b505050505090806003018054610b459061226d565b80601f0160208091040260200160405190810160405280929190818152602001828054610b719061226d565b8015610bbe5780601f10610b9357610100808354040283529160200191610bbe565b820191906000526020600020905b815481529060010190602001808311610ba157829003601f168201915b5050505050905084565b610bd061182b565b60016000808473ffffffffffffffffffffffffffffffffffffffff1673ffffffffffffffffffffffffffffffffffffffff168152602001908152602001600020604051610c1d9190611e93565b90815260200160405180910390206040518060800160405290816000820160009054906101000a900473ffffffffffffffffffffffffffffffffffffffff1673ffffffffffffffffffffffffffffffffffffffff1673ffffffffffffffffffffffffffffffffffffffff168152602001600182018054610c9c9061226d565b80601f0160208091040260200160405190810160405280929190818152602001828054610cc89061226d565b8015610d155780601f10610cea57610100808354040283529160200191610d15565b820191906000526020600020905b815481529060010190602001808311610cf857829003601f168201915b50505050508152602001600282018054610d2e9061226d565b80601f0160208091040260200160405190810160405280929190818152602001828054610d5a9061226d565b8015610da75780601f10610d7c57610100808354040283529160200191610da7565b820191906000526020600020905b815481529060010190602001808311610d8a57829003601f168201915b50505050508152602001600382018054610dc09061226d565b80601f0160208091040260200160405190810160405280929190818152602001828054610dec9061226d565b8015610e395780601f10610e0e57610100808354040283529160200191610e39565b820191906000526020600020905b815481529060010190602001808311610e1c57829003601f168201915b5050505050815250509050919050565b600073ffffffffffffffffffffffffffffffffffffffff166002600084815260200190815260200160002060010160009054906101000a900473ffffffffffffffffffffffffffffffffffffffff1673ffffffffffffffffffffffffffffffffffffffff161415610eef576040517f08c379a0000000000000000000000000000000000000000000000000000000008152600401610ee690611f68565b60405180910390fd5b3373ffffffffffffffffffffffffffffffffffffffff166002600084815260200190815260200160002060010160009054906101000a900473ffffffffffffffffffffffffffffffffffffffff1673ffffffffffffffffffffffffffffffffffffffff1614610f93576040517f08c379a0000000000000000000000000000000000000000000000000000000008152600401610f8a90611f88565b60405180910390fd5b600060026000848152602001908152602001600020905081816002019080519060200190610fc29291906117a5565b50505050565b60008060003373ffffffffffffffffffffffffffffffffffffffff1673ffffffffffffffffffffffffffffffffffffffff16815260200190815260200160002080546110139061226d565b905014611055576040517f08c379a000000000000000000000000000000000000000000000000000000000815260040161104c90611fa8565b60405180910390fd5b600073ffffffffffffffffffffffffffffffffffffffff1660018460405161107d9190611e7c565b908152602001604051809103902060000160009054906101000a900473ffffffffffffffffffffffffffffffffffffffff1673ffffffffffffffffffffffffffffffffffffffff1614611105576040517f08c379a00000000000000000000000000000000000000000000000000000000081526004016110fc90612008565b60405180910390fd5b60405180608001604052803373ffffffffffffffffffffffffffffffffffffffff1681526020018381526020018481526020018281525060018460405161114c9190611e7c565b908152602001604051809103902060008201518160000160006101000a81548173ffffffffffffffffffffffffffffffffffffffff021916908373ffffffffffffffffffffffffffffffffffffffff16021790555060208201518160010190805190602001906111bd9291906117a5565b5060408201518160020190805190602001906111da9291906117a5565b5060608201518160030190805190602001906111f79291906117a5565b50905050826000803373ffffffffffffffffffffffffffffffffffffffff1673ffffffffffffffffffffffffffffffffffffffff168152602001908152602001600020908051906020019061124d9291906117a5565b50505050565b6060600073ffffffffffffffffffffffffffffffffffffffff168273ffffffffffffffffffffffffffffffffffffffff1614156112c5576040517f08c379a00000000000000000000000000000000000000000000000000000000081526004016112bc90611fe8565b60405180910390fd5b6000805b6003805490508110156113b257600060038281548110611312577f4e487b7100000000000000000000000000000000000000000000000000000000600052603260045260246000fd5b9060005260206000200154905060006002600083815260200190815260200160002090508573ffffffffffffffffffffffffffffffffffffffff168160010160009054906101000a900473ffffffffffffffffffffffffffffffffffffffff1673ffffffffffffffffffffffffffffffffffffffff16141561139d578380611399906122d0565b9450505b505080806113aa906122d0565b9150506112c9565b5060008167ffffffffffffffff8111156113f5577f4e487b7100000000000000000000000000000000000000000000000000000000600052604160045260246000fd5b60405190808252806020026020018201604052801561142e57816020015b61141b611720565b8152602001906001900390816114135790505b5090506000805b6003805490508110156116745760006003828154811061147e577f4e487b7100000000000000000000000000000000000000000000000000000000600052603260045260246000fd5b9060005260206000200154905060006002600083815260200190815260200160002090508773ffffffffffffffffffffffffffffffffffffffff168160010160009054906101000a900473ffffffffffffffffffffffffffffffffffffffff1673ffffffffffffffffffffffffffffffffffffffff16141561165f57806040518060a0016040529081600082015481526020016001820160009054906101000a900473ffffffffffffffffffffffffffffffffffffffff1673ffffffffffffffffffffffffffffffffffffffff1673ffffffffffffffffffffffffffffffffffffffff1681526020016002820180546115769061226d565b80601f01602080910402602001604051908101604052809291908181526020018280546115a29061226d565b80156115ef5780601f106115c4576101008083540402835291602001916115ef565b820191906000526020600020905b8154815290600101906020018083116115d257829003601f168201915b5050505050815260200160038201548152602001600482015481525050858581518110611645577f4e487b7100000000000000000000000000000000000000000000000000000000600052603260045260246000fd5b6020026020010181905250838061165b906122d0565b9450505b5050808061166c906122d0565b915050611435565b50819350505050919050565b6000602052806000526040600020600091509050805461169f9061226d565b80601f01602080910402602001604051908101604052809291908181526020018280546116cb9061226d565b80156117185780601f106116ed57610100808354040283529160200191611718565b820191906000526020600020905b8154815290600101906020018083116116fb57829003601f168201915b505050505081565b6040518060a0016040528060008152602001600073ffffffffffffffffffffffffffffffffffffffff1681526020016060815260200160008152602001600081525090565b5080546117719061226d565b6000825580601f1061178357506117a2565b601f0160209004906000526020600020908101906117a19190611869565b5b50565b8280546117b19061226d565b90600052602060002090601f0160209004810192826117d3576000855561181a565b82601f106117ec57805160ff191683800117855561181a565b8280016001018555821561181a579182015b828111156118195782518255916020019190600101906117fe565b5b5090506118279190611869565b5090565b6040518060800160405280600073ffffffffffffffffffffffffffffffffffffffff1681526020016060815260200160608152602001606081525090565b5b8082111561188257600081600090555060010161186a565b5090565b600061189961189484612104565b6120df565b9050828152602081018484840111156118b157600080fd5b6118bc84828561222b565b509392505050565b6000813590506118d381612571565b92915050565b600082601f8301126118ea57600080fd5b81356118fa848260208601611886565b91505092915050565b60008135905061191281612588565b92915050565b60006020828403121561192a57600080fd5b6000611938848285016118c4565b91505092915050565b60006020828403121561195357600080fd5b600082013567ffffffffffffffff81111561196d57600080fd5b611979848285016118d9565b91505092915050565b60008060006060848603121561199757600080fd5b600084013567ffffffffffffffff8111156119b157600080fd5b6119bd868287016118d9565b935050602084013567ffffffffffffffff8111156119da57600080fd5b6119e6868287016118d9565b925050604084013567ffffffffffffffff811115611a0357600080fd5b611a0f868287016118d9565b9150509250925092565b600060208284031215611a2b57600080fd5b6000611a3984828501611903565b91505092915050565b60008060408385031215611a5557600080fd5b6000611a6385828601611903565b925050602083013567ffffffffffffffff811115611a8057600080fd5b611a8c858286016118d9565b9150509250929050565b6000611aa28383611d77565b905092915050565b611ab3816121ef565b82525050565b611ac2816121ef565b82525050565b6000611ad38261215a565b611add818561217d565b935083602082028501611aef85612135565b8060005b85811015611b2b5784840389528151611b0c8582611a96565b9450611b1783612170565b925060208a01995050600181019050611af3565b50829750879550505050505092915050565b6000611b4882612165565b611b52818561218e565b9350611b6281856020860161223a565b611b6b816123a6565b840191505092915050565b6000611b8182612165565b611b8b818561219f565b9350611b9b81856020860161223a565b611ba4816123a6565b840191505092915050565b6000611bba82612165565b611bc481856121b0565b9350611bd481856020860161223a565b80840191505092915050565b60008154611bed8161226d565b611bf781866121b0565b94506001821660008114611c125760018114611c2357611c56565b60ff19831686528186019350611c56565b611c2c85612145565b60005b83811015611c4e57815481890152600182019150602081019050611c2f565b838801955050505b50505092915050565b6000611c6c60218361219f565b9150611c77826123b7565b604082019050919050565b6000611c8f60128361219f565b9150611c9a82612406565b602082019050919050565b6000611cb260158361219f565b9150611cbd8261242f565b602082019050919050565b6000611cd560138361219f565b9150611ce082612458565b602082019050919050565b6000611cf860298361219f565b9150611d0382612481565b604082019050919050565b6000611d1b600e8361219f565b9150611d26826124d0565b602082019050919050565b6000611d3e602a8361219f565b9150611d49826124f9565b604082019050919050565b6000611d6160178361219f565b9150611d6c82612548565b602082019050919050565b600060a083016000830151611d8f6000860182611e5e565b506020830151611da26020860182611aaa565b5060408301518482036040860152611dba8282611b3d565b9150506060830151611dcf6060860182611e5e565b506080830151611de26080860182611e5e565b508091505092915050565b6000608083016000830151611e056000860182611aaa565b5060208301518482036020860152611e1d8282611b3d565b91505060408301518482036040860152611e378282611b3d565b91505060608301518482036060860152611e518282611b3d565b9150508091505092915050565b611e6781612221565b82525050565b611e7681612221565b82525050565b6000611e888284611baf565b915081905092915050565b6000611e9f8284611be0565b915081905092915050565b6000608082019050611ebf6000830187611ab9565b8181036020830152611ed18186611b76565b90508181036040830152611ee58185611b76565b90508181036060830152611ef98184611b76565b905095945050505050565b60006020820190508181036000830152611f1e8184611ac8565b905092915050565b60006020820190508181036000830152611f408184611b76565b905092915050565b60006020820190508181036000830152611f6181611c5f565b9050919050565b60006020820190508181036000830152611f8181611c82565b9050919050565b60006020820190508181036000830152611fa181611ca5565b9050919050565b60006020820190508181036000830152611fc181611cc8565b9050919050565b60006020820190508181036000830152611fe181611ceb565b9050919050565b6000602082019050818103600083015261200181611d0e565b9050919050565b6000602082019050818103600083015261202181611d31565b9050919050565b6000602082019050818103600083015261204181611d54565b9050919050565b600060208201905081810360008301526120628184611ded565b905092915050565b600060208201905061207f6000830184611e6d565b92915050565b600060a08201905061209a6000830188611e6d565b6120a76020830187611ab9565b81810360408301526120b98186611b76565b90506120c86060830185611e6d565b6120d56080830184611e6d565b9695505050505050565b60006120e96120fa565b90506120f5828261229f565b919050565b6000604051905090565b600067ffffffffffffffff82111561211f5761211e612377565b5b612128826123a6565b9050602081019050919050565b6000819050602082019050919050565b60008190508160005260206000209050919050565b600081519050919050565b600081519050919050565b6000602082019050919050565b600082825260208201905092915050565b600082825260208201905092915050565b600082825260208201905092915050565b600081905092915050565b60006121c682612221565b91506121d183612221565b9250828210156121e4576121e3612319565b5b828203905092915050565b60006121fa82612201565b9050919050565b600073ffffffffffffffffffffffffffffffffffffffff82169050919050565b6000819050919050565b82818337600083830152505050565b60005b8381101561225857808201518184015260208101905061223d565b83811115612267576000848401525b50505050565b6000600282049050600182168061228557607f821691505b6020821081141561229957612298612348565b5b50919050565b6122a8826123a6565b810181811067ffffffffffffffff821117156122c7576122c6612377565b5b80604052505050565b60006122db82612221565b91507fffffffffffffffffffffffffffffffffffffffffffffffffffffffffffffffff82141561230e5761230d612319565b5b600182019050919050565b7f4e487b7100000000000000000000000000000000000000000000000000000000600052601160045260246000fd5b7f4e487b7100000000000000000000000000000000000000000000000000000000600052602260045260246000fd5b7f4e487b7100000000000000000000000000000000000000000000000000000000600052604160045260246000fd5b6000601f19601f8301169050919050565b7f596f75206d757374207369676e20757020746f20706f7374206120747765657460008201527f2e00000000000000000000000000000000000000000000000000000000000000602082015250565b7f547765657420646f206e6f742065786973740000000000000000000000000000600082015250565b7f596f7520617265206e6f7420746865206f776e65720000000000000000000000600082015250565b7f5573657220616c72656164792065786973747300000000000000000000000000600082015250565b7f596f75206d75737420777269746520736f6d657468696e6720746f20706f737460008201527f20612074776565742e0000000000000000000000000000000000000000000000602082015250565b7f55736572206e6f7420666f756e64000000000000000000000000000000000000600082015250565b7f557365726e616d652069732074616b656e2c20706c656173652074727920616e60008201527f6f74686572206f6e652e00000000000000000000000000000000000000000000602082015250565b7f596f757220747765657420697320746f6f206c6f6e672e000000000000000000600082015250565b61257a816121ef565b811461258557600080fd5b50565b61259181612221565b811461259c57600080fd5b5056fea26469706673582212200e9032ba5ef63ea087277a265f48802f5bf8e0da5d002bb3bca8b130444fcf7f64736f6c63430008040033",
  "linkReferences": {},
  "deployedLinkReferences": {}
}