{
  "_format": "hh-sol-artifact-1",
  "contractName": "DeTweet",
  "sourceName": "contracts/DeTweet.sol",
  "abi": [
    {
      "inputs": [
        {
          "internalType": "uint256",
          "name": "_tweetId",
          "type": "uint256"
        }
      ],
      "name": "deleteTweet",
      "outputs": [],
      "stateMutability": "nonpayable",
      "type": "function"
    },
    {
      "inputs": [],
      "name": "getAllTweets",
      "outputs": [
        {
          "components": [
            {
              "internalType": "uint256",
              "name": "id",
              "type": "uint256"
            },
            {
              "internalType": "address",
              "name": "author",
              "type": "address"
            },
            {
              "internalType": "string",
              "name": "content",
              "type": "string"
            },
            {
              "internalType": "uint256",
              "name": "timestamp",
              "type": "uint256"
            },
            {
              "internalType": "uint256",
              "name": "likes",
              "type": "uint256"
            }
          ],
          "internalType": "struct DeTweet.Tweet[]",
          "name": "",
          "type": "tuple[]"
        }
      ],
      "stateMutability": "view",
      "type": "function"
    },
    {
      "inputs": [
        {
          "internalType": "address",
          "name": "_userAddress",
          "type": "address"
        }
      ],
      "name": "getUser",
      "outputs": [
        {
          "components": [
            {
              "internalType": "address",
              "name": "userAddress",
              "type": "address"
            },
            {
              "internalType": "string",
              "name": "name",
              "type": "string"
            },
            {
              "internalType": "string",
              "name": "username",
              "type": "string"
            },
            {
              "internalType": "string",
              "name": "imgURI",
              "type": "string"
            }
          ],
          "internalType": "struct DeTweet.User",
          "name": "",
          "type": "tuple"
        }
      ],
      "stateMutability": "view",
      "type": "function"
    },
    {
      "inputs": [
        {
          "internalType": "uint256",
          "name": "",
          "type": "uint256"
        }
      ],
      "name": "idToTweet",
      "outputs": [
        {
          "internalType": "uint256",
          "name": "id",
          "type": "uint256"
        },
        {
          "internalType": "address",
          "name": "author",
          "type": "address"
        },
        {
          "internalType": "string",
          "name": "content",
          "type": "string"
        },
        {
          "internalType": "uint256",
          "name": "timestamp",
          "type": "uint256"
        },
        {
          "internalType": "uint256",
          "name": "likes",
          "type": "uint256"
        }
      ],
      "stateMutability": "view",
      "type": "function"
    },
    {
      "inputs": [
        {
          "internalType": "string",
          "name": "_content",
          "type": "string"
        }
      ],
      "name": "postDweet",
      "outputs": [],
      "stateMutability": "nonpayable",
      "type": "function"
    },
    {
      "inputs": [
        {
          "internalType": "string",
          "name": "_username",
          "type": "string"
        },
        {
          "internalType": "string",
          "name": "_name",
          "type": "string"
        },
        {
          "internalType": "string",
          "name": "_imgURI",
          "type": "string"
        }
      ],
      "name": "signup",
      "outputs": [],
      "stateMutability": "nonpayable",
      "type": "function"
    },
    {
      "inputs": [
        {
          "internalType": "uint256",
          "name": "",
          "type": "uint256"
        }
      ],
      "name": "tweetIds",
      "outputs": [
        {
          "internalType": "uint256",
          "name": "",
          "type": "uint256"
        }
      ],
      "stateMutability": "view",
      "type": "function"
    },
    {
      "inputs": [
        {
          "internalType": "uint256",
          "name": "_tweetId",
          "type": "uint256"
        },
        {
          "internalType": "string",
          "name": "_content",
          "type": "string"
        }
      ],
      "name": "updateTweet",
      "outputs": [],
      "stateMutability": "nonpayable",
      "type": "function"
    },
    {
      "inputs": [
        {
          "internalType": "address",
          "name": "",
          "type": "address"
        }
      ],
      "name": "usernames",
      "outputs": [
        {
          "internalType": "string",
          "name": "",
          "type": "string"
        }
      ],
      "stateMutability": "view",
      "type": "function"
    },
    {
      "inputs": [
        {
          "internalType": "string",
          "name": "",
          "type": "string"
        }
      ],
      "name": "users",
      "outputs": [
        {
          "internalType": "address",
          "name": "userAddress",
          "type": "address"
        },
        {
          "internalType": "string",
          "name": "name",
          "type": "string"
        },
        {
          "internalType": "string",
          "name": "username",
          "type": "string"
        },
        {
          "internalType": "string",
          "name": "imgURI",
          "type": "string"
        }
      ],
      "stateMutability": "view",
      "type": "function"
    }
  ],
  "bytecode": "0x608060405234801561001057600080fd5b50612101806100206000396000f3fe608060405234801561001057600080fd5b506004361061009e5760003560e01c8063689e1c0311610066578063689e1c031461015d5780636f77926b146101905780637c0aa77a146101c0578063ac0861c3146101dc578063ee91877c146101f85761009e565b806317edf66d146100a35780632fc51e9f146100d357806353256135146101075780635775912a14610125578063675164a414610141575b600080fd5b6100bd60048036038101906100b891906115b1565b610228565b6040516100ca9190611bbf565b60405180910390f35b6100ed60048036038101906100e891906115b1565b61024c565b6040516100fe959493929190611bda565b60405180910390f35b61010f61032a565b60405161011c9190611a79565b60405180910390f35b61013f600480360381019061013a91906115b1565b6105a2565b005b61015b600480360381019061015691906114d9565b61076b565b005b610177600480360381019061017291906114d9565b61098f565b6040516101879493929190611a1f565b60405180910390f35b6101aa60048036038101906101a591906114b0565b610b8d565b6040516101b79190611b9d565b60405180910390f35b6101da60048036038101906101d591906115da565b610e0e565b005b6101f660048036038101906101f1919061151a565b610f8d565b005b610212600480360381019061020d91906114b0565b611218565b60405161021f9190611a9b565b60405180910390f35b6003818154811061023857600080fd5b906000526020600020016000915090505481565b60026020528060005260406000206000915090508060000154908060010160009054906101000a900473ffffffffffffffffffffffffffffffffffffffff169080600201805461029b90611dc2565b80601f01602080910402602001604051908101604052809291908181526020018280546102c790611dc2565b80156103145780601f106102e957610100808354040283529160200191610314565b820191906000526020600020905b8154815290600101906020018083116102f757829003601f168201915b5050505050908060030154908060040154905085565b6060600060038054905067ffffffffffffffff811115610373577f4e487b7100000000000000000000000000000000000000000000000000000000600052604160045260246000fd5b6040519080825280602002602001820160405280156103ac57816020015b6103996112b8565b8152602001906001900390816103915790505b5090506000805b600380549050811015610599576000600382815481106103fc577f4e487b7100000000000000000000000000000000000000000000000000000000600052603260045260246000fd5b906000526020600020015490506000600260008381526020019081526020016000209050806040518060a0016040529081600082015481526020016001820160009054906101000a900473ffffffffffffffffffffffffffffffffffffffff1673ffffffffffffffffffffffffffffffffffffffff1673ffffffffffffffffffffffffffffffffffffffff16815260200160028201805461049c90611dc2565b80601f01602080910402602001604051908101604052809291908181526020018280546104c890611dc2565b80156105155780601f106104ea57610100808354040283529160200191610515565b820191906000526020600020905b8154815290600101906020018083116104f857829003601f168201915b505050505081526020016003820154815260200160048201548152505085858151811061056b577f4e487b7100000000000000000000000000000000000000000000000000000000600052603260045260246000fd5b6020026020010181905250838061058190611e25565b9450505050808061059190611e25565b9150506103b3565b50819250505090565b60005b6003805490508110156107025781600382815481106105ed577f4e487b7100000000000000000000000000000000000000000000000000000000600052603260045260246000fd5b906000526020600020015414156106ef57600360016003805490506106129190611d10565b81548110610649577f4e487b7100000000000000000000000000000000000000000000000000000000600052603260045260246000fd5b90600052602060002001546003828154811061068e577f4e487b7100000000000000000000000000000000000000000000000000000000600052603260045260246000fd5b906000526020600020018190555060038054806106d4577f4e487b7100000000000000000000000000000000000000000000000000000000600052603160045260246000fd5b60019003818190600052602060002001600090559055610702565b80806106fa90611e25565b9150506105a5565b50600260008281526020019081526020016000206000808201600090556001820160006101000a81549073ffffffffffffffffffffffffffffffffffffffff021916905560028201600061075691906112fd565b60038201600090556004820160009055505050565b60008060003373ffffffffffffffffffffffffffffffffffffffff1673ffffffffffffffffffffffffffffffffffffffff16815260200190815260200160002080546107b690611dc2565b9050116107f8576040517f08c379a00000000000000000000000000000000000000000000000000000000081526004016107ef90611abd565b60405180910390fd5b600081511161083c576040517f08c379a000000000000000000000000000000000000000000000000000000000815260040161083390611b3d565b60405180910390fd5b61011881511115610882576040517f08c379a000000000000000000000000000000000000000000000000000000000815260040161087990611b7d565b60405180910390fd5b600060038054905090506040518060a001604052808281526020013373ffffffffffffffffffffffffffffffffffffffff1681526020018381526020014281526020016000815250600260008381526020019081526020016000206000820151816000015560208201518160010160006101000a81548173ffffffffffffffffffffffffffffffffffffffff021916908373ffffffffffffffffffffffffffffffffffffffff160217905550604082015181600201908051906020019061094a92919061133d565b50606082015181600301556080820151816004015590505060038190806001815401808255809150506001900390600052602060002001600090919091909150555050565b6001818051602081018201805184825260208301602085012081835280955050505050506000915090508060000160009054906101000a900473ffffffffffffffffffffffffffffffffffffffff16908060010180546109ee90611dc2565b80601f0160208091040260200160405190810160405280929190818152602001828054610a1a90611dc2565b8015610a675780601f10610a3c57610100808354040283529160200191610a67565b820191906000526020600020905b815481529060010190602001808311610a4a57829003601f168201915b505050505090806002018054610a7c90611dc2565b80601f0160208091040260200160405190810160405280929190818152602001828054610aa890611dc2565b8015610af55780601f10610aca57610100808354040283529160200191610af5565b820191906000526020600020905b815481529060010190602001808311610ad857829003601f168201915b505050505090806003018054610b0a90611dc2565b80601f0160208091040260200160405190810160405280929190818152602001828054610b3690611dc2565b8015610b835780601f10610b5857610100808354040283529160200191610b83565b820191906000526020600020905b815481529060010190602001808311610b6657829003601f168201915b5050505050905084565b610b956113c3565b60016000808473ffffffffffffffffffffffffffffffffffffffff1673ffffffffffffffffffffffffffffffffffffffff168152602001908152602001600020604051610be29190611a08565b90815260200160405180910390206040518060800160405290816000820160009054906101000a900473ffffffffffffffffffffffffffffffffffffffff1673ffffffffffffffffffffffffffffffffffffffff1673ffffffffffffffffffffffffffffffffffffffff168152602001600182018054610c6190611dc2565b80601f0160208091040260200160405190810160405280929190818152602001828054610c8d90611dc2565b8015610cda5780601f10610caf57610100808354040283529160200191610cda565b820191906000526020600020905b815481529060010190602001808311610cbd57829003601f168201915b50505050508152602001600282018054610cf390611dc2565b80601f0160208091040260200160405190810160405280929190818152602001828054610d1f90611dc2565b8015610d6c5780601f10610d4157610100808354040283529160200191610d6c565b820191906000526020600020905b815481529060010190602001808311610d4f57829003601f168201915b50505050508152602001600382018054610d8590611dc2565b80601f0160208091040260200160405190810160405280929190818152602001828054610db190611dc2565b8015610dfe5780601f10610dd357610100808354040283529160200191610dfe565b820191906000526020600020905b815481529060010190602001808311610de157829003601f168201915b5050505050815250509050919050565b600073ffffffffffffffffffffffffffffffffffffffff166002600084815260200190815260200160002060010160009054906101000a900473ffffffffffffffffffffffffffffffffffffffff1673ffffffffffffffffffffffffffffffffffffffff161415610eb4576040517f08c379a0000000000000000000000000000000000000000000000000000000008152600401610eab90611add565b60405180910390fd5b3373ffffffffffffffffffffffffffffffffffffffff166002600084815260200190815260200160002060010160009054906101000a900473ffffffffffffffffffffffffffffffffffffffff1673ffffffffffffffffffffffffffffffffffffffff1614610f58576040517f08c379a0000000000000000000000000000000000000000000000000000000008152600401610f4f90611afd565b60405180910390fd5b600060026000848152602001908152602001600020905081816002019080519060200190610f8792919061133d565b50505050565b60008060003373ffffffffffffffffffffffffffffffffffffffff1673ffffffffffffffffffffffffffffffffffffffff1681526020019081526020016000208054610fd890611dc2565b90501461101a576040517f08c379a000000000000000000000000000000000000000000000000000000000815260040161101190611b1d565b60405180910390fd5b600073ffffffffffffffffffffffffffffffffffffffff1660018460405161104291906119f1565b908152602001604051809103902060000160009054906101000a900473ffffffffffffffffffffffffffffffffffffffff1673ffffffffffffffffffffffffffffffffffffffff16146110ca576040517f08c379a00000000000000000000000000000000000000000000000000000000081526004016110c190611b5d565b60405180910390fd5b60405180608001604052803373ffffffffffffffffffffffffffffffffffffffff1681526020018381526020018481526020018281525060018460405161111191906119f1565b908152602001604051809103902060008201518160000160006101000a81548173ffffffffffffffffffffffffffffffffffffffff021916908373ffffffffffffffffffffffffffffffffffffffff160217905550602082015181600101908051906020019061118292919061133d565b50604082015181600201908051906020019061119f92919061133d565b5060608201518160030190805190602001906111bc92919061133d565b50905050826000803373ffffffffffffffffffffffffffffffffffffffff1673ffffffffffffffffffffffffffffffffffffffff168152602001908152602001600020908051906020019061121292919061133d565b50505050565b6000602052806000526040600020600091509050805461123790611dc2565b80601f016020809104026020016040519081016040528092919081815260200182805461126390611dc2565b80156112b05780601f10611285576101008083540402835291602001916112b0565b820191906000526020600020905b81548152906001019060200180831161129357829003601f168201915b505050505081565b6040518060a0016040528060008152602001600073ffffffffffffffffffffffffffffffffffffffff1681526020016060815260200160008152602001600081525090565b50805461130990611dc2565b6000825580601f1061131b575061133a565b601f0160209004906000526020600020908101906113399190611401565b5b50565b82805461134990611dc2565b90600052602060002090601f01602090048101928261136b57600085556113b2565b82601f1061138457805160ff19168380011785556113b2565b828001600101855582156113b2579182015b828111156113b1578251825591602001919060010190611396565b5b5090506113bf9190611401565b5090565b6040518060800160405280600073ffffffffffffffffffffffffffffffffffffffff1681526020016060815260200160608152602001606081525090565b5b8082111561141a576000816000905550600101611402565b5090565b600061143161142c84611c59565b611c34565b90508281526020810184848401111561144957600080fd5b611454848285611d80565b509392505050565b60008135905061146b8161209d565b92915050565b600082601f83011261148257600080fd5b813561149284826020860161141e565b91505092915050565b6000813590506114aa816120b4565b92915050565b6000602082840312156114c257600080fd5b60006114d08482850161145c565b91505092915050565b6000602082840312156114eb57600080fd5b600082013567ffffffffffffffff81111561150557600080fd5b61151184828501611471565b91505092915050565b60008060006060848603121561152f57600080fd5b600084013567ffffffffffffffff81111561154957600080fd5b61155586828701611471565b935050602084013567ffffffffffffffff81111561157257600080fd5b61157e86828701611471565b925050604084013567ffffffffffffffff81111561159b57600080fd5b6115a786828701611471565b9150509250925092565b6000602082840312156115c357600080fd5b60006115d18482850161149b565b91505092915050565b600080604083850312156115ed57600080fd5b60006115fb8582860161149b565b925050602083013567ffffffffffffffff81111561161857600080fd5b61162485828601611471565b9150509250929050565b600061163a83836118ec565b905092915050565b61164b81611d44565b82525050565b61165a81611d44565b82525050565b600061166b82611caf565b6116758185611cd2565b93508360208202850161168785611c8a565b8060005b858110156116c357848403895281516116a4858261162e565b94506116af83611cc5565b925060208a0199505060018101905061168b565b50829750879550505050505092915050565b60006116e082611cba565b6116ea8185611ce3565b93506116fa818560208601611d8f565b61170381611efb565b840191505092915050565b600061171982611cba565b6117238185611cf4565b9350611733818560208601611d8f565b61173c81611efb565b840191505092915050565b600061175282611cba565b61175c8185611d05565b935061176c818560208601611d8f565b80840191505092915050565b6000815461178581611dc2565b61178f8186611d05565b945060018216600081146117aa57600181146117bb576117ee565b60ff198316865281860193506117ee565b6117c485611c9a565b60005b838110156117e6578154818901526001820191506020810190506117c7565b838801955050505b50505092915050565b6000611804602183611cf4565b915061180f82611f0c565b604082019050919050565b6000611827601283611cf4565b915061183282611f5b565b602082019050919050565b600061184a601583611cf4565b915061185582611f84565b602082019050919050565b600061186d601383611cf4565b915061187882611fad565b602082019050919050565b6000611890602983611cf4565b915061189b82611fd6565b604082019050919050565b60006118b3602a83611cf4565b91506118be82612025565b604082019050919050565b60006118d6601783611cf4565b91506118e182612074565b602082019050919050565b600060a08301600083015161190460008601826119d3565b5060208301516119176020860182611642565b506040830151848203604086015261192f82826116d5565b915050606083015161194460608601826119d3565b50608083015161195760808601826119d3565b508091505092915050565b600060808301600083015161197a6000860182611642565b506020830151848203602086015261199282826116d5565b915050604083015184820360408601526119ac82826116d5565b915050606083015184820360608601526119c682826116d5565b9150508091505092915050565b6119dc81611d76565b82525050565b6119eb81611d76565b82525050565b60006119fd8284611747565b915081905092915050565b6000611a148284611778565b915081905092915050565b6000608082019050611a346000830187611651565b8181036020830152611a46818661170e565b90508181036040830152611a5a818561170e565b90508181036060830152611a6e818461170e565b905095945050505050565b60006020820190508181036000830152611a938184611660565b905092915050565b60006020820190508181036000830152611ab5818461170e565b905092915050565b60006020820190508181036000830152611ad6816117f7565b9050919050565b60006020820190508181036000830152611af68161181a565b9050919050565b60006020820190508181036000830152611b168161183d565b9050919050565b60006020820190508181036000830152611b3681611860565b9050919050565b60006020820190508181036000830152611b5681611883565b9050919050565b60006020820190508181036000830152611b76816118a6565b9050919050565b60006020820190508181036000830152611b96816118c9565b9050919050565b60006020820190508181036000830152611bb78184611962565b905092915050565b6000602082019050611bd460008301846119e2565b92915050565b600060a082019050611bef60008301886119e2565b611bfc6020830187611651565b8181036040830152611c0e818661170e565b9050611c1d60608301856119e2565b611c2a60808301846119e2565b9695505050505050565b6000611c3e611c4f565b9050611c4a8282611df4565b919050565b6000604051905090565b600067ffffffffffffffff821115611c7457611c73611ecc565b5b611c7d82611efb565b9050602081019050919050565b6000819050602082019050919050565b60008190508160005260206000209050919050565b600081519050919050565b600081519050919050565b6000602082019050919050565b600082825260208201905092915050565b600082825260208201905092915050565b600082825260208201905092915050565b600081905092915050565b6000611d1b82611d76565b9150611d2683611d76565b925082821015611d3957611d38611e6e565b5b828203905092915050565b6000611d4f82611d56565b9050919050565b600073ffffffffffffffffffffffffffffffffffffffff82169050919050565b6000819050919050565b82818337600083830152505050565b60005b83811015611dad578082015181840152602081019050611d92565b83811115611dbc576000848401525b50505050565b60006002820490506001821680611dda57607f821691505b60208210811415611dee57611ded611e9d565b5b50919050565b611dfd82611efb565b810181811067ffffffffffffffff82111715611e1c57611e1b611ecc565b5b80604052505050565b6000611e3082611d76565b91507fffffffffffffffffffffffffffffffffffffffffffffffffffffffffffffffff821415611e6357611e62611e6e565b5b600182019050919050565b7f4e487b7100000000000000000000000000000000000000000000000000000000600052601160045260246000fd5b7f4e487b7100000000000000000000000000000000000000000000000000000000600052602260045260246000fd5b7f4e487b7100000000000000000000000000000000000000000000000000000000600052604160045260246000fd5b6000601f19601f8301169050919050565b7f596f75206d757374207369676e20757020746f20706f7374206120747765657460008201527f2e00000000000000000000000000000000000000000000000000000000000000602082015250565b7f547765657420646f206e6f742065786973740000000000000000000000000000600082015250565b7f596f7520617265206e6f7420746865206f776e65720000000000000000000000600082015250565b7f5573657220616c72656164792065786973747300000000000000000000000000600082015250565b7f596f75206d75737420777269746520736f6d657468696e6720746f20706f737460008201527f20612074776565742e0000000000000000000000000000000000000000000000602082015250565b7f557365726e616d652069732074616b656e2c20706c656173652074727920616e60008201527f6f74686572206f6e652e00000000000000000000000000000000000000000000602082015250565b7f596f757220747765657420697320746f6f206c6f6e672e000000000000000000600082015250565b6120a681611d44565b81146120b157600080fd5b50565b6120bd81611d76565b81146120c857600080fd5b5056fea26469706673582212202b852fc57e817887cade828c28f687a2bd86a02c75c8328cb9e5781f6a304ab564736f6c63430008040033",
  "linkReferences": {},
  "deployedLinkReferences": {}
}